:09026000010CFF01090001080076
:1001F000EF1FAC0670011E4C600A7D027CEFDCFE36
:04020000DDFC80ECB5
:0102040022D7
:10020500438910758D4CE4F58BD2ABD2AFD28E22DB
:03001B000201C11E
:1001C100C0E0C0D0758D4C758B00E508D39400401C
:0801D100021508D0D0D0E03285
:1001D9005389F0438901758A18758CFCC28DD28CBC
:0701E900D2A9D2AFC2B92276
:03000B000201806F
:10018000C0E0C0D0758A18758CFC050D050EE50D14
:10019000C3950A5004D2A08002C2A0E50DC3941EEC
:1001A0004003750D00E50EC3950B5004D2A18002EB
:1001B000C2A1E50EC3941E4003750E00D0D0D0E05E
:0101C000320C
:0F021500D2A2C2A3750A06D2A4C2A5750B0622F7
:0F022400C2A2D2A3750A08D2A4C2A5750B0F22DD
:0F023300D2A2C2A3750A0AC2A4D2A5750B1022CB
:0F024200C2A2D2A3750A0FD2A4C2A5750B1722B0
:0F025100D2A2C2A3750A17C2A4D2A5750B0F22A1
:10001E00E4FF3081027F08308203430704308003FF
:10002E00430702308303430701EF650C6011050996
:10003E00E509C39403401175080AE4F5098009E542
:10004E0009D39400400215098F0CE508D3940040A3
:10005E000302021530810C30800930820630830392
:10006E001202153081092080062082033083302051
:10007E00810930800620820330832420810920806C
:10008E0006308203308318208109208006208203E7
:10009E0020830C30811330801020820D20830A12B1
:1000AE0002157F1E7E001201F020810C3080093077
:1000BE00820630830312022430810C2080093082A4
:1000CE000630830312023330810C30800920820601
:1000DE0030830312024230810C30800930820620B8
:0500EE00830312025122
:0100F30022EA
:0B000E001202051201D912001E80FB37
:030000000200F407
:0C00F400787FE4F6D8FD75810E02013B18
:1001000002000EE493A3F8E493A34003F68001F207
:1001100008DFF48029E493A3F85407240CC8C33300
:10012000C4540F4420C8834004F456800146F6DFCF
:10013000E4800B0102040810204080900260E47EFD
:10014000019360BCA3FF543F30E509541FFEE493C4
:10015000A360010ECF54C025E060A840B8E493A38B
:10016000FAE493A3F8E493A3C8C582C8CAC583CAB6
:10017000F0A3C8C582C8CAC583CADFE9DEE780BE6E
:010269000094
:00000001FF
